:020000040800F2
:10000000800600209D010008A5010008A701000846
:10001000A9010008AB010008AD01000800000000C4
:10002000000000000000000000000000AF01000818
:10003000B101000800000000B3010008C516000867
:10004000B7010008B7010008B7010008B7010008B0
:10005000B7010008B7010008B7010008B7010008A0
:10006000B7010008B7010008B7010008B701000890
:10007000B7010008B7010008B7010008B701000880
:10008000B7010008B7010008B7010008B701000870
:10009000B7010008B7010008B7010008B701000860
:1000A000B7010008B7010008B7010008B701000850
:1000B000B7010008B7010008B7010008B701000840
:1000C000B7010008B7010008B7010008B701000830
:1000D000B7010008B7010008B7010008B701000820
:1000E000B7010008B7010008B7010008B701000810
:1000F000B7010008B7010008B7010008B701000800
:10010000B7010008B7010008B7010008B7010008EF
:10011000B7010008B7010008B7010008B7010008DF
:10012000B7010008B7010008B7010008B7010008CF
:10013000B7010008B7010008B7010008B7010008BF
:10014000B7010008B7010008B7010008B7010008AF
:10015000B7010008B7010008B7010008B70100089F
:10016000B7010008B7010008B7010008B70100088F
:10017000B7010008B7010008B7010008000000003F
:10018000B7010008B7010008DFF80CD000F04CF808
:1001900000480047011B00088006002006488047F1
:1001A00006480047FEE7FEE7FEE7FEE7FEE7FEE75C
:1001B000FEE7FEE7FEE7FEE74917000889010008B1
:1001C0002DE9F05F0546002092469B46884606468C
:1001D000814640241BE0284641464746224600F01F
:1001E00044F853465A46C01A914110D31146184656
:1001F000224600F02BF82D1A67EB01084F462246E5
:100200000120002100F022F817EB00094E41201ECA
:10021000A4F10104DFDC484631462A46434600F09B
:1002200000B830BCBDE8C09F064C074D06E0E06852
:1002300040F0010394E8070098471034AC42F6D32D
:10024000FFF7A6FF441C0008641C0008202A04DBFA
:10025000203A00FA02F1002070479140C2F12003D9
:1002600020FA03F3194390407047202A04DB203A18
:1002700021FA02F00021704721FA02F3D040C2F1C6
:1002800020029140084319467047000070B50546AA
:1002900000F0F2F84FEA000400F0EEF8001BA8426C
:1002A000FAD370BD2DE9F84FDFF898B100234FF075
:1002B000010C4FF0030A4FF00F090BF1040EB9E0E7
:1002C0000CFA03F4224070D04D68022D01D0122D9B
:1002D0000ED1DD0800EB8508D8F820505E07F70E38
:1002E00009FA07F6B5430E69BE402E43C8F82060F0
:1002F00007685E0091F804800AFA06F508F0030822
:10030000AF4308FA06F848EA0708C0F800804F68CB
:10031000012F05D0022F03D0112F01D0122F13D19E
:10032000D0F80880CF6828EA0508B74047EA0807F0
:100330008760D0F804800F7928EA0408C7F3001713
:100340009F4047EA08074760D1F804806FEA080732
:10035000BF0706D1C76AA743C8F3C0049C403C430B
:10036000C462C468AC438D68B5402543C5604C6821
:10037000E4005ED5344C256E45F001052566246EFB
:1003800023F0030504F001040094304C2E19B468E6
:100390009D072F0F09FA07F5AC43B0F1904F05D038
:1003A0002B4DA84204D101251CE042E0002519E0B4
:1003B000284DA84201D1022514E0274DA84201D1C1
:1003C00003250FE0254DA84201D104250AE0244D64
:1003D000A84201D1052505E0224DA84201D10625FC
:1003E00000E00725BD402543B560DBF800405D46D1
:1003F0004E689443F60300D514432C60DEF80040A9
:1004000075464E689443B60300D514432C600D4DD9
:1004100008352C684E689443F60200D514432C60CE
:10042000084D0C352C684E689443B60200D5144331
:100430002C605B1C0A6832FA03F57FF441AF00F0D0
:1004400013B8000000040140001002400000014009
:100450000004004800080048000C00480010004854
:10046000001400480018004818BCBDE8E08F0AB12D
:1004700081617047816270470148006870470000E1
:100480000C00002002480168491C01607047000010
:100490000C000020074810B5016841F4807101602C
:1004A000032000F053F8002000F006F800F018F8E0
:1004B000002010BD0020024010B5044607484FF44C
:1004C0007A710068B0FBF1F000F0F9FD00222146DE
:1004D000501E00F01BF8002010BD00000800002096
:1004E000094808B5016E41F001010166006E00F097
:1004F00001000090032000F029F80022BDE8084028
:100500001146501E00F002B800100240F0B40E4B2D
:100510001B680C46C3F30223C3F10705042D00D961
:100520000425191D072901D2002300E0DB1E012646
:1005300006FA05F1491E214099409E40761E16405C
:100540003143F0BC00F0C0BF0CED00E0064900F004
:10055000070208684FF6FF03184040EA0220034AEA
:1005600010430860704700000CED00E00000FA0541
:100570001549B0F5007F0868C0F3412009D0022872
:1005800005D0086820F4C06040F480600860002056
:1005900070470128FBD0086820F4C06040F4007068
:1005A00008600A480A4A0068B0FBF2F03222504361
:1005B00000E0401E10B14A695205FAD4486940056E
:1005C000E5D50320704700000070004008000020BF
:1005D00040420F000248006800F4C060704700000D
:1005E000007000402DE9F047DFF8688105460E46AF
:1005F000D8F8000000F00700B0420CD2D8F8001084
:1006000021F007013143C8F80010D8F8000000F0CD
:100610000700B04274D128784F4C800705D5A068F8
:10062000A96820F0F0000843A0602878C00756D0E1
:100630006868022818D0032819D02168D0B149056C
:1006400000295DDAA16821F003010143A160FFF7F1
:1006500013FF6968074641F28830022912D0032946
:100660001ED0814649B335E021688903E8E7216857
:100670008901E5E78907E3E7FFF7FEFEC11B49456E
:1006800001D924E08146A068C0F381000228F3D19B
:1006900025E000BFFFF7F0FEC11B494501D916E078
:1006A0008146A068C0F381000328F3D117E000BFA2
:1006B000FFF7E2FEC11B494509D8A06810F00C0FF6
:1006C000F6D10CE0FFF7D8FEC11B494502D9032043
:1006D000BDE8F087A068C0F381000128F2D1D8F806
:1006E0000010404601F00701B1420BD9016821F02A
:1006F000070131430160006800F00700B04201D0FB
:100700000120E5E72878400705D5A068E96820F4CE
:10071000E0600843A0602878000706D5A068296932
:1007200020F4605040EAC100A06000F021F8A16808
:10073000F02292FAA2F201F0F001B2FA82F2D14074
:10074000064A515CC840064908600020FFF7B4FE25
:100750000020BDE70020024000100240041C0008F9
:1007600008000020014800687047000008000020D1
:1007700070B53B49002318468A683A4C12F00C0FBA
:100780004FEA640514D08A68C2F38102032A04D1B7
:10079000CA6802F00302012A0AD08A68C2F3810201
:1007A000012A21D08A68C2F38102022A1ED01EE0EB
:1007B0000A68120706D4D1F894204FF4706302F44B
:1007C000706203E00A68F02302F0F00293FAA3F3E8
:1007D000B3FA83F3DA40244B53F822308A6812F0DC
:1007E0000C0F04D1184602E0204600E028468A6833
:1007F000C2F38102032A31D1C868CA6800F003003D
:10080000702696FAA6F602F07002B6FA86F6F24064
:10081000521C4FF4FE46022804D0032805D0B3FB37
:10082000F2F004E0B4FBF2F001E0B5FBF2F0CA68CC
:1008300096FAA6F302F4FE42B3FA83F3DA40C968EB
:1008400050434FF0C06292FAA2F201F0C061B2FAD6
:1008500082F2D140491C4900B0FBF1F070BD0000AC
:10086000001002400024F400141C00082DE9F84395
:1008700004460078F94DC00663D5A86810F00C0F47
:100880000AD0A0690028286878D040F001002860CC
:10089000FFF7F2FD06465AE02868800702D5A069F6
:1008A00000286AD0216A28684FF0F006000703D5B7
:1008B000286800F0F00003E0D5F8940006EA101074
:1008C000814216D9084600F00FFE002855D128684D
:1008D00040F0080028602868216A20F0F0000843F2
:1008E00028606868E16920F47F4040EA0120686080
:1008F00015E0286840F0080028602868216A20F088
:10090000F000084328606868E16920F47F4040EA0D
:1009100001206860206A00F0E7FD0028D6D1FFF7CB
:1009200027FFA96896FAA6F201F0F001B2FA82F266
:10093000D140CB4A515CC840CA4908600020FFF74B
:10094000BBFD2BE0FFF798FD801B022870D82868BC
:100950008007F7D5286840F0080028602868216AD9
:1009600020F0F000084328606868E16920F47F40C7
:1009700040EA0120686011E000E0ABE020F00100F7
:100980002860FFF779FD064605E000BFFFF774FD1C
:10099000801B0228DAD828688007F7D42078C0079F
:1009A0005ED0A868C0F38100022814D0A868C0F304
:1009B0008100032803D1E868C04380070BD0286872
:1009C00020F480302860286820F480202860FFF719
:1009D00053FD06460BE02868800341D56068002877
:1009E00078D03DE0FFF748FD801B6428AED828682A
:1009F0002F468003F6D46068B0F5803F10D0B0F584
:100A0000A02F286820F48030286028680CD020F4BB
:100A1000802028606068B0B1FFF72EFD06460EE02A
:100A2000286840F48030F4E740F480202860F7E73D
:100A3000D0E000BFFFF720FD801B642886D838680F
:100A40008003F7D50CE0FFF717FD064605E000BF71
:100A5000FFF712FD801B64289CD838688003F7D408
:100A60002078800746D5A8684FF0F857C0F381007A
:100A7000012814D0A868C0F38100032804D1E868D5
:100A800000F0030002280AD0E0680028286822D07D
:100A900040F480702860FFF7EFFC06460BE0286802
:100AA00040050BD5E06800289AD007E0FFF7E4FC8A
:100AB000801B02289AD828684005F7D5686897FAFD
:100AC000A7F22169B2FA82F220F0F850914008436F
:100AD00068600FE015E120F480702860FFF7CCFC1F
:100AE000064604E0FFF7C8FC801B022872D828687D
:100AF0004005F7D42078000727D560690028D5F88D
:100B0000940011D040F00100C5F89400FFF7B4FC48
:100B1000064604E0FFF7B0FC801B02285AD8D5F83F
:100B200094008007F6D510E020F00100C5F894008D
:100B3000FFF7A2FC064604E0FFF79EFC801B02289C
:100B400048D8D5F894008007F6D4207840076BD5B4
:100B5000A86D0026C00008D4A86D40F08050A8659C
:100B6000A86D012600F0805000903F480168C9053B
:100B700011D40168804641F480710160FFF77CFC6C
:100B8000074604E0FFF778FCC01B022822D8D8F8FB
:100B90000000C005F6D5A06801280DD008B10528D1
:100BA00019D0D5F8900020F00100C5F89000D5F8D4
:100BB000900020F0040003E0D5F8900040F0010020
:100BC000C5F89000A06841F28838D8B1FFF754FC0E
:100BD000074612E087E0D5F8900020F00100C5F844
:100BE0009000D5F8900040F00400C5F89000E3E7CD
:100BF000FFF742FCC11B41457BD8D5F89000800728
:100C0000F6D50CE0FFF738FC074604E0FFF734FCAC
:100C1000C11B41456DD8D5F890008007F6D41EB1B0
:100C2000A86D20F08050A865606AB0B1A968C1F3D2
:100C30008101032965D00228286820F0807028608F
:100C400016D0E86820F00300E860E868074908402B
:100C5000E860FFF711FC04464EE050E0001002404F
:100C6000041C00080800002000700040FFFFEEFE9A
:100C7000FFF702FC064604E0FFF7FEFB801B02289C
:100C800037D828688001F7D4E06AA16A00011038DB
:100C90000843216B626B0902120941EA4241084391
:100CA000218F194A490802EB4151084394F83C103E
:100CB0004908120102EB41610843E860286840F0EE
:100CC00080702860E86840F08070E860FFF7D4FB2F
:100CD000044604E0FFF7D0FB001B022809D828686F
:100CE0008001F7D50BE004E0FFF7C6FB001B0228EC
:100CF00002D90320BDE8F88328688001F4D40020DD
:100D0000F8E70120F6E700000000E0FF2DE9F041E0
:100D1000040004D094F85D00002518B107E001201C
:100D2000BDE8F08184F85C50204600F04FF80223C3
:100D300084F85D302068016821F040010160E068BE
:100D40004FF4E066B04201D9002101E04FF4805138
:100D5000B0F5706F02D0B04200D0A562276B0122BF
:100D600027B9B04201D9236300E02263D4E901032B
:100D70001843D4E9043633431843238B03F4007338
:100D80001843E3691843236A1843A36A1843236886
:100D90001860206B022804D12068036843F40063C4
:100DA0000360636B606AA66918430427E36807EA77
:100DB0001646334318430843216848602168E06AB7
:100DC0000861256684F85D200020A9E700B5006869
:100DD0000E4987B0884216D10D48816D41F480419B
:100DE0008165806D694600F4804005901A2000906E
:100DF000022001900020029003200390052004901F
:100E00000448FFF74FFA07B000BD0000003800406B
:100E100000100240000C00482DE9F84F1F46914693
:100E20008A4604460A9EFFF727FB804694F85C003A
:100E30000025012809D04FF0010B84F85CB094F82C
:100E40005D00012804D0022522E1022000F027B92C
:100E5000BAF1000F7DD0B9F1000FFBD0002FF9D00F
:100E6000052084F85D000020C4F840902066A4F8B6
:100E70004670A4F84470C4F838A0E787A787A06A32
:100E80004FF40057B8420AD1206801684DF6FF724E
:100E9000114001602068016841F400510160E06880
:100EA0004FF4E061884203D8B4F84600012804D921
:100EB0002068426822F4805203E02068426842F4CD
:100EC0008052426020680268520603D4026842F0F1
:100ED00040020260E068884233D88EE0B8B12068F2
:100EE0008168890713D5A16B0988C160A06B801C3C
:100EF000A063E08F401E0004000CE08707D1A06AC9
:100F0000B84204D12068016841F480510160B4F80E
:100F1000460070B120688168C9070AD0C068216C9A
:100F20000880206C801C2064B4F84600401EA4F8A1
:100F30004600701C05D0FFF79FFAA0EB0800B042F6
:100F400059D2E08F0028C9D1B4F846100029C5D184
:100F50005AE09CE000B321688A6892071CD50128FA
:100F6000A06B07D90088C860A06B801CA063E08FCD
:100F7000801E05E0421CA26300780873E08F401ECB
:100F8000E0870004000C07D1A06AB84204D12068B1
:100F9000016841F480510160B4F8461019B320682B
:100FA0008268D2071FD0012913D9C068216C08803C
:100FB000206C801C2064B4F84600801E80B2A4F827
:100FC000460001280FD82068416841F480514160F3
:100FD00009E0027B206C411C21640270B4F84600D9
:100FE000401EA4F84600701C07D0FFF745FAA0EB9E
:100FF0000800B04201D303254AE0E08F0028A9D1C0
:10100000B4F846100029A5D1A06AB84228D101221F
:1010100033461146204600F00EFBB0B9E068B0F54B
:10102000706F206808D0007BADF80000BDF80000AC
:10103000206B022802D013E0C0680DE00122334685
:101040001146204600F0F7FA20B1206E40F0020071
:101050002066D0E72068007BADF80000BDF80000F6
:1010600020688168C943C90607D4216E41F0020196
:1010700021664FF6EF71816001253146204600F070
:1010800071FA10B12020206601E0206E00B1012528
:1010900084F85DB0002084F85C002846D6E618BCD1
:1010A000BDE8E08F4FF0E0210428086903D020F06C
:1010B00004000861704740F00400FAE7704710B57B
:1010C000401EB0F1807F01D3012010BD4FF0E0241D
:1010D00060610F21601700F0F7F90020A061072080
:1010E0002061002010BD10B5FFF7E8FF10BD000023
:1010F0002DE9F84381461C46174688461BA000F0A0
:1011000045FB601C00F048FD0546601C00F044FDF6
:101110000646024608F08000194B28702946012037
:101120001B7801E02B54401CA042FBDD0120009005
:10113000631CD9F80000FFF76FFE012004E0315C6A
:101140003A18401C02F8011CA042F8DD39780DA0C5
:1011500000F01CFB0FA000F019FB304600F0A8FCCB
:10116000284600F0A5FC0020BDE8F88352656164C4
:101170002052656769737465723A2025580A000029
:1011800004000020436F6E74656E743A2025580A7F
:10119000000000002D2D2D2D2D2D2D2D2D2D2D2D33
:1011A0002D2D2D2D2D2D2D2D2D2D2D2D0A00000019
:1011B0002DE9F04FAC4887B0C16C41F01001C1641B
:1011C000C16C01F010010591C16C41F00401C164D2
:1011D000C16C01F004010591C16C41F08001C16452
:1011E000C16C01F080010591C16C41F00101C16445
:1011F000C16C01F001010591C16C41F00201C164B3
:10120000C16C01F002010591C16C41F00801C1649B
:10121000C06C01A900F008000590F42000900220A5
:101220000024032581E831000D20049069468F4891
:10123000FFF738F84FF0080A0120CDF800A0CDE9FB
:1012400001040220039069468848FFF72BF8884E76
:101250004FF41050CDE90006694602948548FFF727
:1012600021F80720CDE90004694682480294FFF77F
:1012700019F84FF4FC7000900220CDE901040B270F
:10128000CDE9034769467B48FFF70CF82F20CDE9ED
:101290000004022002906946B002FFF703F8102014
:1012A000CDE9000669460294B002FEF7FBFF48F262
:1012B000C07000900220CDE90104CDE903476946E2
:1012C000B002FEF7EFFF4FF2332000900220CDE98D
:1012D0000104CDE9034769466748FEF7E3FF0120B3
:1012E0004FF00408CDE90080CDE902056946624867
:1012F000FEF7D8FF4FF4807000900120CDE9020581
:10130000019069465948FEF7CDFF4FF400700090F8
:101310000220CDE901040D20CDE903406946534880
:10132000FEF7C0FF4FF47C40009001AA02204FF06E
:101330000A0982E8310269464C48FEF7B3FFA80269
:101340004FF0120BCDE9000B02AA012082E8210127
:1013500069464948FEF7A6FF4FF47F4000900220FF
:10136000CDE90104CDE9034769464448FEF79AFFF9
:101370004FF4206701200097CDE9010469463D48FC
:101380000394FEF78FFFE802009001AA022082E892
:1013900031026946B002FEF785FF0520CDE900065F
:1013A000694602943548FEF77DFF602000900220D8
:1013B00001900120CDE902050720049069462F48DD
:1013C000FEF770FF8020009001AA012082E8310022
:1013D00069462A48FEF766FF0120CDF800A0CDE956
:1013E0000104694624480394FEF75CFFC020CDE960
:1013F000000B02AA012082E8210169461E48FEF77F
:1014000051FF4FF48070CDE90006694602941A48F6
:10141000FEF748FF01200090CDE90104694613481A
:101420000394FEF73FFF0220CDE9000669460294CF
:101430000E48FEF737FF002240F209110B48FFF774
:1014400016F800220C210C48FFF711F8002239464B
:101450000848FFF70CF8002280210848FFF707F83A
:1014600007B000F00DB80000001002400010004866
:10147000000012100008004800040048000C00485A
:1014800030BCBDE8C08F00000E480D494FF44072DB
:1014900001604FF4827141600021C0E902124FF4F3
:1014A00000720161C0E90512C16101620722416257
:1014B000C0E90A12016308214163FFF727BC00005D
:1014C00000380040180000200907090E002806DA3D
:1014D00000F00F0000F1E02080F8141D704700F1CB
:1014E000E02080F800147047F8B51C4D0646002433
:1014F000A86DC00002D5FFF76DF80DE0A86D40F0B3
:101500008050A865A86D00F080500090FFF762F849
:10151000A96D21F08051A965B0F5007F04D0802E1F
:1015200007D94FF003040AE0802E08D9A02E01D875
:1015300004E001D1022402E0702E00D10124084809
:10154000016821F0070121430160006800F00700F5
:10155000A04201D00120F8BD0020F8BD00100240DB
:101560000020024070B50D460B46044600224FF4A1
:10157000C05100F00FF838B92B46002280212046D8
:1015800000F059F8002804D0206E40F020002066BA
:10159000032070BD2DE9F8431D4617460E4604464C
:1015A000FEF76AFF80464FF4C0693DE04E4505D125
:1015B00027B9007B8DF800009DF80000681C33D02F
:1015C0002DB1FEF759FFA0EB0800A8422CD32068EC
:1015D000416821F0E00141606068B0F5827F0BD185
:1015E000A068B0F5004F02D0B0F5806F04D120683C
:1015F000016821F040010160A06AB0F5005F0AD1E6
:10160000206801684DF6FF72114001602068016892
:1016100041F400510160012084F85D00002084F84D
:101620005C000320BDE8F883206881683140B9423E
:10163000BCD10020F6E72DE9F0411D4616460F46C5
:101640000446FEF719FF804635E0681C33D02DB103
:10165000FEF712FFA0EB0800A8422CD320684168D7
:1016600021F0E00141606068B0F5827F0BD1A06895
:10167000B0F5004F02D0B0F5806F04D1206801684A
:1016800021F040010160A06AB0F5005F0AD1206836
:1016900001684DF6FF72114001602068016841F455
:1016A00000510160012084F85D00002084F85C0096
:1016B0000320BDE8F081206880683840B042C4D182
:1016C0000020F6E710B5FEF7DDFEBDE81040FFF79D
:1016D0000ABD000010B596B0102000900120002433
:1016E000CDE906046020CDE908046846FFF7BEF89E
:1016F0000F20CDE9100412941394002110A8149423
:10170000FEF770FF0F48816D41F080518165806D5B
:1017100000F0805015904FF40070FEF729FFFFF79E
:1017200021F84FF47A71B0FBF1F0FFF7C8FC042008
:10173000FFF7B8FC00221146501EFEF7E7FE16B078
:1017400010BD0000001002400D48016841F4700116
:1017500001600C48016841F00101016000218160D5
:101760000268094B1A4002608214C260026822F4C7
:101770008022026081610249C0038039086070479D
:1017800088ED00E000100240FFFFF6EA0FB4054BC1
:1017900010B503A9044A029800F018F810BC5DF8CF
:1017A00014FB0000951A00080000002002E008C8A1
:1017B000121F08C1002AFAD170477047002001E0CB
:1017C00001C1121F002AFBD1704700002DE9FF4F15
:1017D0008DB09B460F460446002606E025280BD018
:1017E0005A460F999047641C761C20780028F5D142
:1017F00011B0304600F04AB90025A84601229849A8
:1018000000E0054314F8013F203B02FA03F00842D0
:10181000F7D120782E2817D114F8010F45F00405D0
:101820002A280ED06FF02F022078A0F1300109296C
:101830000AD808EB880102EB410100EB0108641CA7
:10184000F2E757F8048B641C20786C280DD004DC78
:101850004C2812D06A2811D104E074280DD07A28BF
:101860000CD10AE045F4001507E0617845F48015D5
:10187000814202D1641C05F58015641C2278692A16
:1018800045D008DC002AB3D0582A69D0632A10D08A
:10189000642A08D13BE0702A67D0732A13D0752AD6
:1018A0005CD0782A5CD010465A460F999047761C37
:1018B000D3E017F8040B8DF8000000208DF801002C
:1018C000E946012003E057F8049B4FF0FF30690719
:1018D0004FF0000501D40AE06D1C45450DDA854244
:1018E000FADB19F805100029F6D106E06D1C8542D7
:1018F000FCDB19F805100029F8D12E4404E019F892
:10190000010B5A460F9990476D1EF8D2A5E00A20A8
:101910000021CDE90801C5F3025002280DD001CF06
:10192000C117031E71F100030DDA4FF0000CD0EB6C
:101930000C006CEB01012D2308E0FF1D27F00707C9
:10194000F7E80201EDE72B0504D52B238DF82830AD
:1019500001233BE0EB0739D02023F7E70A2000E022
:1019600010200021CDE9080107E01020002145F0FA
:101970000405CDE908014FF00808C5F3025002281C
:101980000FD001CF00214FF0000A2B071FD5702A7E
:101990000DD0DDE908C38CF0100C5CEA030C0CD010
:1019A00015E0FF1D27F00707F7E80201EBE74022EB
:1019B0008DF828204FF0010A0BE050EA010306D011
:1019C00030238DF828308DF8292002239A46582A92
:1019D00004D024A20DF120090B9209E026A2F9E718
:1019E000DDE90823FEF7ECFB0B9B9B5C09F8013D4E
:1019F00050EA0102F4D1ADEB0900203008906807ED
:101A000001D44FF001080899884502DDA8EB0100D8
:101A100000E000208046002506E00AA85A46405D06
:101A20000F9990476D1C761C5545F6DB04E030207D
:101A30005A460F999047761CB8F10001A8F10108A9
:101A4000F5DC05E019F8010B5A460F999047761C12
:101A50000899481E08900029F4DC641CC5E60000C3
:101A60000928010030313233343536373839616274
:101A70006364656600000000303132333435363738
:101A800038394142434445460000000030BCBDE8BF
:101A9000C08F000005490968C90105D54FF06041B4
:101AA0000A68002AFCD0087070470000FCED00E0D6
:101AB00010B5002821D0114B0022001F196803E047
:101AC000814203D80A4649680029F9D152B1136806
:101AD000841A9C4204D1006818441060104602E049
:101AE000506000E0186039B102680B1A934203D1CC
:101AF0000B681A4402604968416010BD1000002064
:101B00008AB0FEF7C7FCFFF7E5FDFFF751FBFFF7D3
:101B1000BBFC14A0FFF73AFE15480290154803904D
:101B200080206C460490012322460F2102A8FFF773
:101B3000DFFA9DF801209DF800100FA0FFF726FEA8
:101B40004FF4FA75012322460F2102A8FFF7D0FABD
:101B50002846FEF79BFB0CA0FFF718FE0CA0FFF732
:101B600015FEEFE7496E69742072656164790A00B9
:101B700018000020000C00485265673A2025582CB8
:101B80002025580A000000006C616C610A0000000A
:101B90006C616C61320A0000F0B50B30154D20F01D
:101BA00007010024144A0FE003688B420BD38B42D9
:101BB00005D95E1A43184768C3E9006700E0436827
:101BC000136002C004E0021D10680028ECD120461A
:101BD000002802D1286808B10020F0BD064A074855
:101BE0001060074A121A22F00702C0E900240120FF
:101BF0002860D7E714000020100000208400002097
:101C00008004002000000000000000000102030426
:101C100006070809A0860100400D0300801A06008F
:101C200000350C0040420F0080841E0000093D007A
:101C300000127A000024F40000366E010048E8012A
:101C4000006CDC02641C000800000020180000008A
:101C5000AC1700087C1C0008180000206806000073
:101C6000BC17000800000000FF00000000093D0054
:0C1C700000000000000000000000000068
:040000050800018965
:00000001FF
